:03000000020B08E8
:03000300022003D5
:03000B0002200BC5
:08001300308A030220130145AD
:03001B0002201BA5
:0300230002202395
:03002B0002202B85
:10003000A188A180C183C1E5C1F2A1DEC104A19064
:10004000C1C30202E9C0D0C0E0C2D3C2D4B180D1E2
:10005000C3B40D020193B42002212EB43F04313306
:10006000014DB45111C082C083901451D1F2D0839C
:10007000D082C2AA212EB448043152014DB452029A
:10008000219BB453024131B441024167014D743D9B
:10009000B18822E8C0E0D1DC7453B1887450B188D3
:1000A000118EA881C0F0D18318D1DC120AE8118E1C
:1000B000E6D18318D1DC120AEE118EE6A2E7E43312
:1000C000D18DD1DC120AF9118EE583D183E582D17D
:1000D00083E43143A88118E6D18374013143E9D127
:1000E0008374023143EAD18374033143EBD18374C7
:1000F000043143ECD18374053143EDD1837406316F
:1001000043EED18374073143EFD183B1A1D1DC74C5
:1001100050B188120AEE118EC3E5819404F8C082B2
:10012000C083120BA2D083D082D0F0D0E0F8D0E010
:10013000D0D032C082C083B1A1901CD2D1F2D08382
:10014000D08222C0E0D1DC7452B188D0E0D18D11D0
:100150008E22C000C001C0F0C082C08390141CD1A8
:10016000F2D083D082E4D183743AB188D1DCE8D173
:1001700083D1DCE9D1837802790E2185E8D18374BB
:100180003AB1887910D1DCE6D18308D9F8B1A1B8A9
:1001900080EAB1A1D0F0D001D00022C0F0D1DC744F
:1001A00042B188118EE5F0D183D1DC7450B18874EE
:1001B00053B1887457B188118EE8C0E0A88118182F
:1001C00018E6D183D1DCC082C08390100AA8A85160
:1001D0002790100DA8B85127901010A8895127908A
:1001E0001015A888512790101AA898512790101F11
:1001F000A88751277454B1887430B188118EE58C6A
:10020000D183E58AD183D1DC7454B1887431B1884B
:10021000118EE58DD183E58BD183B1A1D083D082BE
:10022000D0E0F8D0F0014DD1F2118EE8D183D1DCCD
:1002300022C0F0E8C0E0E581C39404F8C082C08326
:100240009013FAD1F2120BA2E581C39406F8A683AB
:1002500018A68290140BD1F208120BA2D083D08280
:10026000D0E0F8D0F0014DE8C0E0C0F0A881181847
:10027000C082C083901441D1F2B1DE400EF6B1A12C
:10028000D083D082D0F0D0E0F8014D9008ABD1F20D
:10029000D083D082D0F0D0E0F8014DC082C08390EE
:1002A0001289D1F2B180B41B0A9012D2D1F2D0835C
:1002B000D08222B43AEEB1DE40EFF8B1DE40EAF58A
:1002C00083B1DE40E4F582B1DE40DEB4010A901273
:1002D000EDD1F2D083D082220841E1B1DE40CAF0F4
:1002E000A3D8F8B1DE40C241A44387807589117557
:1002F0009850438852E57BA97AAA79AB7863015577
:100300006302CC63031DB50108B50205B503028085
:1003100048C28E758D00758B0020B0FD20B0F22094
:10032000B0EF20B0EC20B0E930B0FDD28E20B0FDAF
:1003300030B0FD20B0FD30B0FDC28EE58B33E58DD1
:1003400033F404F5F0F57B6455F57AE5F064CCF50B
:1003500079E5F0641DF578E5F0F58D758921D28E8B
:1003600022C082C083901535D1F2901486E4936048
:1003700029A3D1DCB1887804D1DCD8FCE493F5F072
:10038000A3E493A3A3A3C082C083F58285F083E492
:10039000D1F2B1A1D083D08280D4901560D1F2D0B7
:1003A00083D08222C082C083900812D1F2B180D162
:1003B000C3B41B0A9008ABD1F2D083D08222B43FE1
:1003C000239016B2D1F290083FD1F2B180B41B0550
:1003D000D083D08222901B8CD1F2901CD2D1F2D04B
:1003E00083D08222B45307901331D1F2813390131A
:1003F00006D1F290084FD1F2D083D082D1E5C082ED
:10040000C0839007E8D1F2D083D082D10450069007
:1004100008ABD1F222740DB188C082C0839013134F
:10042000D1F2D083D0827400C0E07400C0E0C082FA
:10043000C0832290084FD1F2D083D082C082C08383
:10044000D1E59007E8D1F2D083D082D104C082C038
:1004500083500C9008ABD1F2B1A1D083D08222C2DC
:100460008A30B30A901349D1F2D083D08222900807
:100470006CD1F2B180D1C3B41B0A9008ABD1F2D0D9
:1004800083D08222B44C0575B800800375B80490FF
:1004900013BFD1F2D083D0827581387400C0E0746C
:1004A00000C0E0E4C3780079017A007B007C007D25
:1004B000007E007F00C28AD2B375A884737A10B11F
:1004C000A17820D1E5743AB1887420B188E493F61C
:1004D000D1837420B188A308B830F2B1887820E6BF
:1004E000547FF5F0C39420500375F020E5F0B188F7
:1004F00008B830EBB1A1B1904002DAC5B1A122C079
:1005000083C082B1A19007F4D1F2D082D083C0839E
:10051000C082D104B1A14007B1A1D0E0D0E02290C7
:1005200008ABD1F2D082D083B1A122C082C0839027
:100530001234D1F2D083D082D1E5743AB188D1DCC3
:100540007428B188E0D183C082C08390089CD1F226
:10055000B1DE20D50C400AD083D082F0B1A1A3A196
:100560003890125BD1F2D083D082227A12B1A1EA04
:10057000C0E0F11BD0E0FAB1904002DAF2B1A12262
:100580003098FDC298E599223099FDF599C29922DB
:10059000C0E0C3309808E599B41B03D3C298D0E0FB
:1005A00022C0E0740DB188D0E022B180D1C3C3C2B3
:1005B000D5C2D2B40D03D2D522B41B02B322B408E3
:1005C00003D2D222B47F0280F8C0F0F5F0D1A5406A
:1005D00009C5F0B188C5F0D0F022D0F080CCB1AA26
:1005E00030D50122500122C4F5F0B1AA20D20F303B
:1005F000D506C2D5E5F0C42250012245F022740888
:10060000B18880DAC0E0E8C0E0E9C0E0EAC0E0EB31
:10061000C0E0B1AAF8405D20D55A20D2F5B1AAF9C0
:10062000405220D52B30D2067408B18880E4B1AA9C
:10063000FA404120D52130D2067408B18880DEB15D
:10064000AAFB403020D51A30D2207408B18880DE51
:100650007583008882801D758300E8C449F5828017
:10066000138883E9C44AF582800AE8C449F583EA1D
:10067000C44BF582D0E0FBD0E0FAD0E0F9D0E0F84E
:10068000D0E022C0E0C4D18DD0E0D18D22540F241F
:100690000383B1882230313233343536373839412B
:1006A0004243444546C3C0F09430F5F0940A4006F6
:1006B000E5F09407F5F0E5F0C354F06001D3E5F000
:1006C000D0F022C0F0F5F0C39461400B941A5007AB
:1006D000C3E5F09420F5F0E5F0D0F022C0E07420FE
:1006E000B188D0E022C0E0E583D183E582D183D018
:1006F000E022C0E0E4932098156010A2E7547F3018
:1007000099FDF599C2994003A380E9D0E022C298EF
:10071000E599B41BDF740DB18880F0D1E5E493A3B3
:10072000FBC083C08290102493FAEB90113493FEA7
:1007300054FC0303FFEE5403D082D083FE14600FF9
:10074000C0E0E493A3FCD0E0146004E493A3FDF1C3
:1007500081C082C083900EFBF1A9EFF8D0E0D0F009
:10076000C0F0C0E0FEE5F0FFE814C33375F07AC0D6
:10077000F075F007C0F09008BF73D083D082B1A1AC
:1007800022743AB188D1DCEBD183D1DCBE0104798B
:100790000B8011ECD183D1DCBE020479088005ED19
:1007A000D1837906D1DCD9FC227808EA930A18A211
:1007B000E7547FB188400280F2D1DCD8FC223E4C65
:1007C0006F633D003A202856657273696F6E203161
:1007D0002E302920436F6D6D616E643E004C6F6357
:1007E0006174696F6E2028003D44656661756C74A4
:1007F000293A20004E6577206D656D6F7279207003
:100800006F696E746572206C6F636174696F6E3AA4
:1008100020000D533D53696E676C652053746570FD
:100820002C204E3D4E6F726D616C202864656661B0
:10083000756C74292C203F3D48656C70203E00503B
:100840007265737320616E79206B65793A20000DB3
:100850000D52756E2066726F6D206D656D6F7279C9
:10086000206C6F616374696F6E2028000D0D496EF6
:1008700074657272757074207072696F72697479C0
:100880003E204C3D4C6F772C20483D4869676820DE
:100890002864656661756C74293A20002920204E11
:1008A00065772056616C75653A20002020436F6D96
:1008B0006D616E642041626F72746564210D002168
:1008C000A521B721BC21C121C621D121D821DE21FA
:1008D000E521F121FC4108410C4110411341164131
:1008E00019411C411F4127412E41324135413841B8
:1008F0003C413F4199414B41524159415D41644125
:1009000073417A41814188418C419341A241B04178
:10091000C341CA41D27452120588EB540712068DA6
:100920002274401205887452120588EB5401120695
:100930008D22EC20E705EC12068322900FB7E4939A
:10094000A360F3F8C39C70041206F222E493A33070
:10095000E7FA80EAEC547823C4F8EC5480601590F0
:100960001124E893900F903582F58250020583128E
:1009700006F28006E82420120683742E120588EC05
:10098000540712068D22EC20E708C33FFF500D0EDE
:10099000800AF404FCEFC39CFF50011EEE12068394
:1009A000EF12068322EE54F8F8EBC4035407481202
:1009B0000683EC1206832251F431152251F43132B0
:1009C0002251F431212251E851D951E2EC1206832F
:1009D00022313251D951E8223132EDFC21C851EE99
:1009E00051D931542251EE51D9742F120588315406
:1009F0002251F4313251D9EDFC31862251E851D9DE
:100A000051E2EC12068321F5311521FE312121FE40
:100A100051E82251EE223154223132223121225129
:100A2000E8744212058822311551D93186223132BB
:100A300021F531152251F922315421F53186225107
:100A4000D351E8742B12058851F922311551D9512F
:100A5000E822311551D9313222311521C8313251B4
:100A6000D9311522ECC0E0EDFC313251D9D0E0FC97
:100A7000313222313251D9312122312151D951E83B
:100A800022312151D9313222312121C8315451D959
:100A900051EE2251F951D951E2EC120683ED1206C2
:100AA000832251F451D351E8742B12058851F92255
:100AB00051F451D351E8742B1205887450120588F3
:100AC00051EE2251F451D351F92251D351F951D958
:100AD00051E822744012058822742C1205881206EF
:100AE000DC22742312058822744112058822744383
:100AF0001205882251E851D922C083C08290148106
:100B00001206F2D082D08322758130C2D3C2D412B1
:100B100002E9D299C29878081205A1D8FE900BD5A7
:100B20001206F2902000C082C0839007BE1206F227
:100B3000D083D0821206E5C082C0839007C412061B
:100B4000F21205801206C3F520901486E4936049E2
:100B5000B5203FA3E493C0E0A3E493D0F0C082C0EB
:100B600083F58285F0831206F21205A1D083D0822C
:100B7000A3E493F522E4A393F521D023D024900B92
:100B800026C082C083852482852383C021C022227F
:100B90006126A3A3A3A3A3614CD083D0821205A195
:100BA0006126E9C0E0EAC0E0EBC0E0ECC0E0EDC0E7
:100BB000E0EEC0E0EFC0E0868318868212071BD00B
:100BC000E0FFD0E0FED0E0FDD0E0FCD0E0FBD0E0E4
:100BD000FAD0E0F9220D2020200D20202020202016
:100BE00020200C57656C636F6D6520746F207468EE
:100BF00065206E657720616E6420706F7373696223
:100C00006C79206576656E20696D70726F766564AB
:100C10002038303331206D6F6E69746F722F6465C8
:100C20006275676765720D6279205061756C20533B
:100C3000746F6666726567656E206F6E2031342D45
:100C40004F43542D393120666F72206E6F20676FCD
:100C50006F6420726561736F6E2077686174736F63
:100C6000657665722E2E2E0D0D54686573652061B4
:100C7000726520736F6D65206F66207468652066ED
:100C800065617475726573206F6666657265642050
:100C90006279207468697320706172746963756C1D
:100CA00061722064656275676765723A0D0D202078
:100CB000202020446F776E6C6F61642070726F67C4
:100CC00072616D732066726F6D205043202020206A
:100CD000202020202020557365722D467269656E94
:100CE000646C696E65737321212121210D20202000
:100CF000202052756E2050726F6772616D20202027
:100D000020202020202020202020202020202020E3
:100D1000202020202055736573206E6F2065787425
:100D200065726E616C2052414D0D202020202020E4
:100D300020284E6F726D616C2C206F722073696E6B
:100D4000676C652D73746570292020202020202079
:100D500020203C4553433E206B6579206973207306
:100D60007570706F727465640D20202020204C69AE
:100D7000737420617373656D626C6520636F646565
:100D80002066726F6D206D656D6F72792020202056
:100D9000206175746F6D6174696320626175642090
:100DA0007261746520646574656374696F6E0D208B
:100DB000202020204865782044756D7020616E6485
:100DC00020456469742065787465726E616C205288
:100DD000414D20202020204F6E2D6C696E652068CB
:100DE000656C7020287479706520273F27290D0DC8
:100DF000486F77657665722C20796F7520646F6E09
:100E000027742067657420736F6D657468696E2739
:100E100020666F72206E6F7468696E272E2E2E20EA
:100E20002054686520636F646520666F7220746863
:100E300069732064656275676765720D72657175A7
:100E400069726573207175697465206120626974C7
:100E5000206D6F726520726F6F6D207468616E20F7
:100E60006973207479706963616C20666F722061A8
:100E70002064656275676765722C206275742069ED
:100E8000742077696C6C20616C6C0D6669742069E4
:100E90006E746F206120323736342028384B20782A
:100EA000203829204550524F4D2E0D0D4E4F2043D6
:100EB0006F7079726967687421212020506C6561B8
:100EC00073652064697374726962757465206672F3
:100ED00065656C792E20204D616B65206173206DF6
:100EE000616E7920636F7069657320617320796F1B
:100EF000752077616E742E0D0D0D004143414CCC71
:100F00004144C420414444C3414A4DD0414ECC43A6
:100F10004A4EC5434CD24350CC44C14445C34449D6
:100F2000D6444A4EDA494EC34AC24A42C34AC34A29
:100F30004DD04A4EC24A4EC34A4EDA4ADA4C434179
:100F40004CCC4C4A4DD04D4FD64D4F56C34D4F56BD
:100F5000D84D55CC4E4FD04F52CC504FD05055530A
:100F6000C85245D4524554C952CC524CC352D252A5
:100F700052C3534554C2534A4DD0535542C253579E
:100F800041D05843C8584348C45852CC3F3FBF0093
:100F900050B054434FCE50B153434FCE50B249C5D9
:100FA00050B349D043B05432434FCE5053D744B8D6
:100FB0004143C3FDC2FE00E04143C38153D082449C
:100FC00050CC834450C88050B09050B1A050B2B0C3
:100FD00050B399534255C6CD5448B2C85432434FCA
:100FE000CECC544CB2CB5243415032C8CA5243418A
:100FF0005032CC8C5448B08A544CB08D5448B18B8C
:10100000544CB1F0C2D05053D7A849C5B849D08983
:10101000544D4FC48854434FCE9853434FCE8750BE
:10102000434FCE005A0E48732B2B2B2B2B2B2B2BE5
:101030002B2B2B2B30004375212121212121212114
:10104000212121212E0E676E0606060606060606DB
:101050000606060638006A700A0A0A0A0A0A0A0A16
:101060000A0A0A0A330E5D5D5D5D5D5D5D5D5D5D75
:101070005D5D5D5D3B00121212121212121212120D
:1010800012121212410E8F8F8F8F8F8F8F8F8F8F33
:101090008F8F8F8F3E005D354C4C4C4C4C4C4C4CE4
:1010A0004C4C4C4C7C0E124F244C4C4C4C4C4C4CED
:1010B0004C4C4C4C4C004C4F808080808080808019
:1010C000808080805D0E4C2B57924C4C4C4C4C4C8D
:1010D0004C4C4C4C12001C1C1515151515151515EE
:1010E00015151515630E19198488888888888888CD
:1010F00088888888600078781F278B8B2727272788
:1011000027272727530E5353194C4C4C4C4C4C4C0F
:101110004C4C4C4C530053531C4C4C4C4C4C4C4C76
:101120004C4C4C4C000206080C0E101214161B1EE0
:1011300020232425AD066F39394649495959595953
:101140005959595963066F393946494959595959B5
:10115000595959596306AD39160E11110909090972
:10116000090909096306AD39160E111109090909A2
:101170000909090966061A1F160E1111090909093C
:101180000909090966061A1F160E1111090909092C
:101190000909090966061A1F160E1111090909091C
:1011A0000909090966062269161F92867A7A7A7AEF
:1011B0007A7A7A7A660622A14D8386867E7E7E7E44
:1011C0007E7E7E7E9B06969D160E111109090909E9
:1011D000090909092606225D4DAD8E8E7676767652
:1011E000767676762606423D2F2B373733333333E8
:1011F000333333334606423D390E111109090909CB
:10120000090909094606423D3957111152525252F5
:1012100052525252A5061111390E1111090909092C
:1012200009090909A9068989391A898971717171B0
:10123000717171710D45646974696E6720457874C8
:1012400065726E616C2052414D2E2E2E3C455343EB
:101250003E20746F20717569740D0020204564690B
:1012600074696E672066696E69736865642C2074A2
:10127000686973206C6F636174696F6E20756E634B
:1012800068616E6765640D0D000D0D426567696EDE
:10129000206173636969207472616E736D69737321
:1012A000696F6E206F6620496E74656C20484558E2
:1012B00020666F726D61742066696C652C206F7298
:1012C000203C4553433E20746F2061626F72740D61
:1012D0000D00446F776E6C6F61642061626F727491
:1012E000656420627920757365720D0D000D0D0D1A
:1012F0000D446F776E6C6F616420636F6D706C6509
:101300007465640D0D0052756E206E6F726D616CA8
:101310006C79000D4E6F772072756E6E696E672066
:101320007468652070726F6772616D2E2E2E0D0DC0
:101330000052756E20696E2073696E676C6520734C
:10134000746570206D6F6465000D0D5468652073C1
:10135000696E676C6520737465702072756E2066A7
:101360006561747572652077696C6C206E6F74208E
:1013700066756E6374696F6E20756E6C657373202D
:10138000494E5431202870696E2023313329206959
:10139000730D636F6E6E656374656420746F206790
:1013A000726F756E64206F72206F746865727769F2
:1013B00073652068656C64206C6F772E0D0D000DD1
:1013C0004E6F772072756E6E696E6720696E20733E
:1013D000696E676C652073746570206D6F64653A23
:1013E00020203C5245543E3D64656661756C742C0A
:1013F000203F3D48656C700D0D00536B697070693E
:101400006E67202D2D2D2D2D2D3E004E65787420DC
:1014100077696C6C206265202D2D3E000D4C6F634A
:101420003A2020496E7465726E616C2052616D20A5
:101430004D656D6F727920436F6E74656E74730DB8
:10144000004E6577204163632056616C75653A20D4
:10145000000D517569742073696E676C6520737433
:101460006570206D6F64652C206E6F772072756ECD
:101470006E696E67206E6F726D616C6C792E0D0DEA
:101480000044505452003F14FF03615214AA03A4B5
:10149000441508029B4E14B704FF4814CC04BD4CFD
:1014A00014EB056B451522052B002052756E20703C
:1014B000726F6772616D00204E6577206D656D6F8C
:1014C0007279206C6F636174696F6E0020484558B3
:1014D0002044756D70204D656D6F727920746F209A
:1014E0007468652053637265656E00204C6973747F
:1014F00020617373656D626C7920636F6465002091
:1015000048656C703F3F3F0020446F776E6C6F61A1
:10151000642070726F6772616D2066726F6D20500B
:10152000430020456469742065787465726E616C4F
:101530002072616D000C546865736520636F6D6D7A
:10154000616E6473206172652063757272656E747A
:101550006C7920737570706F727465643A0D0D004C
:101560000D416C6C206E756D65726963616C2076DF
:10157000616C756573206172652073686F776E208A
:10158000696E206865782E20205072657373696ECD
:1015900067203C4553433E206B65792077696C6C2E
:1015A0002065786974207468650D63757272656E64
:1015B0007420636F6D6D616E642C206576656E209E
:1015C0007768696C65206C697374696E672F6475E0
:1015D0006D70696E672E20204D6F73742070726F6E
:1015E0006D707473207265717569726520610D7319
:1015F000696E676C65206368617261637465722CE3
:10160000207479706963616C6C79207468652066F8
:1016100069727374206C6574746572206F662074CF
:1016200068652064657369726564206F7074696FA2
:101630006E2E0D0D466F7220696E666F726D61744D
:10164000696F6E20726567617264696E6720746885
:10165000652073696E676C652D7374657020727593
:101660006E20666561747572652C0D7479706520E5
:10167000273F27207768656E2061736B656420279C
:1016800053696E676C652D737465702F4E6F726D44
:10169000616C27206265666F72652072756E6E6977
:1016A0006E67207468652070726F6772616D2E0DB1
:1016B0000D000C5468652073696E676C6520737447
:1016C00065702072756E2066656174757265206143
:1016D0006C6C6F777320796F7520746F20657865F7
:1016E0006375746520796F75722070726F677261AF
:1016F0006D2066726F6D206D656D6F72790D6F6E06
:101700006520696E737472756374696F6E2061749D
:1017100020612074696D652C207768696C65206D87
:101720006F6E69746F72696E672074686520726588
:101730006769737465727320616E6420696E737477
:1017400072756374696F6E732E0D4974206974200D
:101750004E4F5420612073696D756C6174696F6EB2
:101760002C207468652070726F6772616D206973D8
:101770002065786563757465642062792074686596
:1017800020383033312F35312070726F63657373B9
:101790006F722E0D45787465726E616C20496E749F
:1017A000657272757074202331206D7573742062B8
:1017B000652068656C64206C6F7720746F206D61A4
:1017C0006B65207468652073696E676C652073743F
:1017D00065702066756E6374696F6E2E0D0D4465BD
:1017E000737069746520617474656D7074732074AE
:1017F0006F206D616B65207468652073696E676C1E
:101800006520737465702072756E20636F6D7061F2
:101810007469626C65207769746820616C6C2070F3
:10182000726F6772616D732C0D74686572652077D5
:10183000696C6C20616C7761797320626520736FCD
:101840006D65206261736963206C696D6974617490
:10185000696F6E732064756520746F2069747320DE
:101860006E61747572653A0D0D20312D20457874C6
:1018700065726E616C20496E746572727570742049
:101880002331206D757374206E6F7420626520643F
:10189000697361626C65642C20652E672E204D4F44
:1018A000562049452C233831680D20322D205469AB
:1018B0006D6572202331206D75737420626520631D
:1018C0006F72726563746C792067656E657261749E
:1018D000696E67202074686520626175642072619A
:1018E000746520666F722074686520736572696123
:1018F0006C20706F72740D20332D20544920616E5E
:10190000642052492077696C6C206E6F7420776F69
:10191000726B206E6F726D616C6C792C20652E6716
:101920002E20323030333A204A4E422052492C3257
:101930003030332C2075736520736B69702E2E2E1A
:101940000D20342D20496E74657272757074732089
:1019500077696C6C206E6F74206765742073657294
:1019600076696365206F722077696C6C20696E748C
:10197000657272757074207468652073696E676C27
:101980006520737465700D20352D2041626F75746C
:10199000203330206279746573206F662073706124
:1019A0006365206D757374206265206C65667420B4
:1019B000617661696C61626C65206F6E2074686528
:1019C00020737461636B210D20362D203F3F3F2033
:1019D000204F746865722070726F626C656D732041
:1019E0006D617920616C736F2065786973742C2048
:1019F00028746869732070726F6772616D206973F3
:101A000020465245452C20796F75206B6E6F7729E3
:101A10000D0D506572686170732074686520776F72
:101A2000727374206C696D69746174696F6E206F74
:101A300066207468652073696E676C6520737465D1
:101A4000702072756E2069732074686174206974E7
:101A50002074616B657320610D76657279206C6FFF
:101A60006E672074696D6520746F20657865637595
:101A70007465206576656E2073686F727420706976
:101A800065636573206F6620636F64652E2020494F
:101A900074206973207265636F6D6D656E64656433
:101AA00020746861740D61206E6F726D616C2072BC
:101AB000756E20626520617474656D707465642054
:101AC000666972737420746F20657374696D6174D4
:101AD00065207768657265207468652070726F672D
:101AE00072616D20676F6573206173747261792C08
:101AF0000D74686520617474656D70742061207365
:101B0000696E676C652073746570206174207468F9
:101B10006520626567696E6E696E67206F66207406
:101B20006865207175657374696F6E61626C65209C
:101B3000636F64652C207769746820610D68617239
:101B400064636F7079206F662074686520617373B9
:101B5000656D626C79206C697374696E6720666963
:101B60006C65206F6E2D68616E6420666F72206DEB
:101B7000656D6F7279206C6F636174696F6E20722E
:101B800065666572656E63652E0D0D000C426574A9
:101B90007765656E2073746570732C20746865209A
:101BA0006D6F6E69746F72207573657320616273F7
:101BB0006F6C7574656C79204E4F20696E74657218
:101BC0006E616C206F722065787465726E616C2036
:101BD0006D656D6F72792E0D486F77657665722C25
:101BE0002061626F757420333020627974657320D0
:101BF0006F6620737461636B207370616365206D21
:101C0000757374206265206C656674206176616905
:101C10006C61626C652E2E2E0D0D447572696E67B7
:101C200020612073696E676C652073746570207223
:101C3000756E2C207072657373696E6720524554FF
:101C400055524E2072657065617465646C792077B9
:101C5000696C6C2062652074686520757375616CB1
:101C600020636F757273650D6F6620616374696FB1
:101C70006E2E2020486F77657665722C206F746811
:101C80006572206F7074696F6E7320617265206178
:101C90007661696C61626C652E0D0D20202020201C
:101CA00020202020202020547970696E6720273F53
:101CB000272077696C6C20646973706C617920747B
:101CC0006869732068656C702073637265656E0D5A
:101CD0000D0053696E676C65205374657020436F07
:101CE0006D6D616E64733A0D0D203C5245543E207B
:101CF0002020205072696E742053746174757320B3
:101D0000616E64206578656375746520746865200C
:101D10006E65787420696E737472756374696F6E22
:101D20000D203C53504143453E2020457865637566
:101D30007465206E65787420696E7374727563744F
:101D4000696F6E20772F6F7574207374617475736B
:101D5000206C696E65730D2020273F2720202020EE
:101D600020446973706C61792074686973206F6EA8
:101D70002D6C696E652068656C700D2020275227D8
:101D800020202020205072696E74206F75742053BB
:101D900070656369616C2046756E6374696F6E204F
:101DA0005265676973746572730D20202748272078
:101DB000202020204865782064756D7020696E743D
:101DC00065726E616C2072616D0D20202753272093
:101DD00020202020536B6970207468697320696E1D
:101DE000737472756374696F6E0D2020274127200C
:101DF000202020204368616E67652074686520415B
:101E00006363756D756C61746F7227732076616C96
:101E100075650D202027512720202020205175692D
:101E2000742053696E676C6520537465702C206351
:101E30006F6E74696E756520657865637574696E1B
:0D1E400067206E6F726D616C6C790D0D0086
:00000001FF
