:030000000208A350
:080003000220038E828F83228C
:08000B0002200BAE82AF83223C
:08001300022013742D0173009B
:08001B0002201B1173017100AA
:080023000220231116017100F7
:03002B0002202B85
:10002E00217501730167216421862193018A01CE16
:10003E0021CD21A7020939020B57017D0201BA0217
:10004E000AA0020AA6020AE402086402082A0207AB
:10005E00B502078B020A1F21493098FDC298E59917
:10006E0022117174203099FDC299F59922117DC02B
:10007E00E0740D1173740A1173D0E022C2D51162AF
:10008E0031A7B41B03D3E422B40D05D2D5C3E422A9
:10009E00FA314940E9CA1173116231A7B41B0280CB
:1000AE00E4B40D03EAC322B40804117380D0B4156E
:1000BE000280F7FB314940E0CB1173EAC44BC322F7
:1000CE007A007B007C04C2D5116231A7B41B07D322
:1000DE00E4F583F58222B408028003B47F0CBC04DD
:1000EE000280E5117331380C80DEB40D108B838ADB
:1000FE0082BC0407E4F583F582D2D5C322FD3149D3
:10010E0040C6CD1173EDC0E03127D0E02AFAE43BB2
:10011E00FBDCB5C38A828B8322EBC454F0FBEAC4AA
:10012E00540F4BFBEAC454F0FA22EAC4540FFAEB14
:10013E00C454F04AFAEBC4540FFB22C324D050141B
:10014E0024F64004240AC32224F9500824FA400459
:10015E002410C322D322C0E0C4540F24F65002242C
:10016E0007243A1173D0E0C0E0540F24F650022455
:10017E0007243A1173D0E022C0E0E5833164E582B2
:10018E003164D0E022C0E0E493A3600AA2E7547F7A
:10019E001173400280F1D0E022C0E0C394614009A7
:1001AE00941A5005D0E024E022D0E0227800C0E07E
:1001BE00E4936008A2E7084003A380F4D0E022C0D5
:1001CE00E0C3309808E599B41B01D3C298D0E02261
:1001DE00900DF31145EF3164EE31643193116231BC
:1001EE00A775F0DEC0F075F001C0F0F5F0901000CC
:1001FE00F18B5024758204E493B4FE150582E493CA
:10020E00B5F00E11717582203193117D758240E427
:10021E00730583E583B400D8E5F0B43F07900F5B18
:10022E001145A1CFB44D07900F63114581BFB45254
:10023E0007900F681145A136B44407900F6C114515
:10024E0041A7B45507900F6F1145C144B44E0790A6
:10025E000F721145E136B44A07900F7611458111A0
:10026E00B44807900F7C11458148B44507900F881C
:10027E0011458189B44307900F8D1145E112B45A8F
:10028E000B74006012900F911145E146B44908902D
:10029E000F82114502076C017D900E8D114578106D
:1002AE007A10760008DAFB1167B41B028072B43A3A
:1002BE000679007140800A314940EC790671408020
:1002CE00E6742E11737C00715FF8715FF583715FB8
:1002DE00F582715FB40102802D7022E86014715FA7
:1002EE00FA79017140EA120864E43402F97140A30C
:1002FE00D8E9715FEC60B07904714080AAE860F2D1
:10030E00715FD8FC80ECE86004715FD8F3715FEC2C
:10031E0070E57137900EAC114530987A1167807682
:10032E007137900EA41145806D78007900D9FED8F2
:10033E00FA22E95407232410F907E770020907226D
:10034E00D3878209878309E5827005E5837001C32F
:10035E0022116731A7B41B06D0E0D0E080C2B43AB8
:10036E000A79057140D0E0D0E041CF31495006798D
:10037E0007714080DCFA116731A7B41B0280D9B433
:10038E003A0280DD314950067907714080E8CAC4CF
:10039E004AFA2CFCEA22EEC0E0EFC0E0900EB31158
:1003AE004579107EBC7F0E910D7EC27F0E910D7E23
:1003BE00C77F0E910D7A05714E4009DAFA900F0340
:1003CE0011458025900ED2114579167ED67F0E717D
:1003DE00FF7EE77F0E71FF7EEF7F0E71FF7EF57F52
:1003EE000E71FF7EFA7F0E71FFD0E0FFD0E0FE01AE
:1003FE007D714E50091171120AE4110611452271D8
:10040E004E80F2900E35114511063186900E031175
:10041E004511CE20D5065002E10D110E117D900F23
:10042E001111451106E4F5D0F5F0F8F9FAFBFCFDD3
:10043E00FEFF758108C0E0C0E0737A10117B1106D3
:10044E003186743A111E7B101106E493A3316411A8
:10045E0071DBF7116F7B101106E493A3547FB47F09
:10046E0001E424E04001E424201173DBEC117DD182
:10047E00C9110E31CD4002DAC5017D900E771145BE
:10048E0011063186743A111E74281173110EE493FD
:10049E003164900E501145118A20D510400E110670
:1004AE00120864117D1106A3110E8190900E820127
:1004BE0045900E3F114578151171D8FC1145758385
:1004CE0010F18B4002017D116F7582203193758280
:1004DE002031BA7421C398F874201173D8FC758238
:1004EE00003186780674201173D8FC758204E4936B
:1004FE00AA83B4FE05900F498018B4FD05900F50E5
:10050E008010B42305900F4D8008B4F90280EE9050
:10051E000F5711458A83117D74FFB5830281D30570
:10052E0083E583B4009B81D3117B7AFF9010001575
:10053E00830583E583B400028021F18B501D758203
:10054E0004E4934403F460E9116F0A74412A111E06
:10055E0011267582203193117DA13FBAFF05900EB1
:10056E000C0145900DFE1145744111731116744125
:10057E002A1173900E0311451162B41B02017DFB0B
:10058E00741FC39AEB400231A71173FB117DEBC3AD
:10059E00944140CFFBEAC39B40C90B9010001583DA
:1005AE000583E583B400028017F18B501375820426
:1005BE00E4934403F460E9DBE7117D7582408133F7
:1005CE0022900F3111457C3F900F5ED1397C4DD179
:1005DE00397C52D1397C44D1397C55D1397C4ED1BC
:1005EE00397C4AD1397C48D1397C49D1397C45D1C5
:1005FE00397C43D139740060047C5AD139900F3F55
:10060E001145901000F18B5020758204E493B4FED6
:10061E0011116F0582E493117311267582203193A7
:10062E00117D0583E583B400DC017D116FEC117340
:10063E0011261145017DD1DB900F1B1145EB316465
:10064E00EA31641145ED3164EC3164117D8D838C9A
:10065E0082A3AC82AD83900E2B11451167B41B02A1
:10066E00E10B117D8A828B83ECC39582FAED958323
:10067E007009EA603254F0700280027A10743A11F6
:10068E0073EA31643186E58325822AFBE43164E422
:10069E009331642BFBA3DAF7EBF4043164117DD1B3
:1006AE00C931CD50C38056743A1173E4316431644C
:1006BE00316404316474FF3164017BE8C0E0780C6E
:1006CE00E58C04000070FBD8F7D0E0F822117B9087
:1006DE000E59114511CE402120D51EC083C0821166
:1006EE007D900E63114511CEAD83AC82D0E0FAD071
:1006FE00E0FB400520D502017DD0E0D0E0117D90D9
:10070E000DEB0145D1DB900E6D1145116231A7B491
:10071E0059EB117B8B838A82E4120864EDB5830555
:10072E00ECB5820122A380F0900E22114511CE402D
:10073E00CE20D5CB110E017B117B900F91114574FC
:10074E002C111E900E6D1145116231A7B459AE11C8
:10075E007B1207B5900F965003900F9D0145117DAA
:10076E007800117DB88002017DE83164743A11730E
:10077E001171E6316408E8540F70F580E57582005A
:10078E00E493B4A517A3E493B4E511A3E493B4E002
:10079E000BA3E493B4A505758200D32274FFB58331
:1007AE0002C322058380D674006038908000E493E3
:1007BE00F4700DA37400B582F57400B583F0C322F6
:1007CE00908000E4936006E412082A4016A3740099
:1007DE00B582F07400B583EB9080007CE87D04DC7C
:1007EE0004DD02D3227420A2AF92D1C2AFF0F07B0F
:1007FE00147AE5DAFEDBFA74A0F07A05DAFEE493F9
:10080E00A2D192AFF470D8A37400B583EA7400B588
:10081E0082E574FF908000F0E4F0C322F5F0EAC0A8
:10082E00E0EBC0E07A197440A2AF92D1C2AFF0E50E
:10083E00F0F07B13DBFE74C0F07B05DBFEE493A2CD
:10084E00D192AFC395F06003DADCD3E4F0D0E0FBD5
:10085E00D0E0FAE5F022C0E0C0F0F5F07400601BC5
:10086E00E583B4FF02800B5012B480028004500264
:10087E008009E5F0112AD0F0D0E022E5F0F0E49303
:10088E00C395F06009E0C395F06003D38001C3D037
:10089E00F0D0E02232E4F5A8F5B875D00011A2111F
:1008AE00A2F4F580F590F5A0F5B075813079C87A8F
:1008BE00F9DAFED9FA740060137400600F78FAA2A8
:1008CE000079C8D9FE4005D8F61207B575F0F93192
:1008DE000C313975F0FD310C781812007DD8FB788B
:1008EE000F7420120073D8FB900DB9120B57900D98
:1008FE00CD120B571204BF7E007F200201DE901036
:10090E000012078B5024758204E493B5F015C0F0E5
:10091E00C083742DC0E07409C0E0758240E473D0CA
:10092E0083D0F00583E583B400D72274007014E5FC
:10093E007B637A556379CC63781DB57A08B57905F2
:10094E00B5780221FE758780759842758911E4F598
:10095E0088F58AF58CF58BF58D78C8791E30B0E563
:10096E00D9FBD8F720B0FD20B0FA20B0F720B0F4B4
:10097E0020B0F130B0FDD28E208FCA20B0FA208F79
:10098E00C430B0FA208FBE20B0FAD28C208FB63091
:10099E00B0FAC28EC28C208FACE58B33F5F0E58DAC
:1009AE003340A2A2F73400F404609AF58D758BFFE4
:1009BE00758921D29CD28EE58DF404F978FFD8FE8C
:1009CE00D9FA309810C298E599547F24F66006241F
:1009DE000560022153E58A33F8E58C33F940F4E8DB
:1009EE0033F5F0E933A2F7340060E8F404B58DE393
:1009FE00F57BF57AF579F578637A556379CC63787A
:100A0E001DF58DF58B758921758780759852D28E5F
:100A1E0022309806120067B41B51120067B41B4BAC
:100A2E00518D209803741B22120067B45B44518DC4
:100A3E003098DE120067B44103740B22B442037483
:100A4E000A22B44303741522B44403740822B43545
:100A5E00028007B4360280028018C0E0518D3098B3
:100A6E000B120067B47E09D0E024E422D0E080A10E
:100A7E00D0E0518D30989A120067B41BF580A1EA30
:100A8E00C0E07A14E58C2098050470FADAF6D0E00E
:100A9E00FA22C0F0C0E08013C0F0C0E030E70C7462
:100AAE002D120073D0E0C0E0F4240175F06484D2FE
:100ABE00D56007C2D52430120073E5F075F00A84B4
:100ACE0030D50260052430120073E5F02430120098
:100ADE0073D0E0D0F022C0E0E8C0E0C2D5AA82AB6D
:100AEE00837C107D27714260072430120073D2D5AB
:100AFE007CE87D037142700330D5072430120073F9
:100B0E00D2D57C647D007142700330D5072430123B
:100B1E000073D2D5EAABF075F00A84700330D505B8
:100B2E002430120073E5F08BF02430120073D0E005
:100B3E00F8D0E022780008C3EA9CFAEB9DFB50F651
:100B4E0018EA2CFAEB3DFBE822C0E0E8C0E0E9C071
:100B5E00E0ECC0E0D2D1D2D5E493A3602520E72EFD
:100B6E00547FB40D0712007DD2D180ECB41F04C2A5
:100B7E00D580E5B40E0512007D8007C2D112007338
:100B8E0080D6D0E0FCD0E0F9D0E0F8D0E022547F5F
:100B9E00F820D103120071C2D1C082C083900C1113
:100BAE007C00E86007F9910070FCD9FA9100603C76
:100BBE00B40F1291000483801E686677677962789D
:100BCE00766B716A7A0483800E657461726E6973D6
:100BDE006F6C756D706463A2D592E5D2D5B81402B0
:100BEE00C2E5B80C02C2E512007380C0D083D08279
:100BFE006166E493BC00057CFF540F227C00A3C405
:100C0E00540F228290E82386054CF844B3B0B148C5
:100C1E005FF0117FA0157F1C2ED1405A50F103BFFB
:100C2E00BA0C2F96018D3F95380D6F5F1207710E1E
:100C3E00562F483B6258201F7670322440B840E150
:100C4E00618F01340BCA89D3C0A3B9588004F8024E
:100C5E0085602591F092731F107F125493104448B3
:100C6E0007D126564FD0F66472E0B83BD5F0164F3A
:100C7E0056306F48025FA8201F017630D56025419F
:100C8E00A42C60056F013F261F30078E1DF063995F
:100C9E00F042B8201F2330027AD1602FF0F6058F74
:100CAE00931A5028F082046FA30D3F1F5140230169
:100CBE003E0543017A01176493302A088C2430993B
:100CCE00B0F31960254135098ECB191230051F314D
:100CDE001D04144F761204AB279056012FA8D5F0A1
:100CEE00AA26205F1CF0F361FE0141730127C1C0EB
:100CFE00848FD6018770564F19701FA8D99076022F
:100D0E001743FE01C1840B157F028B14308F63399C
:100D1E006F19F011C9106D023F91097A41D0BA0CCA
:100D2E001D395F07F2111720416B3509F775120B4C
:100D3E00A7CC48023F6412A00C27E39FC014777023
:100D4E0011407121C0682541F0627FD1D021E1624E
:100D5E0058B0F3051F733077B16F19E01943E0589F
:100D6E002FF6A414D02303FE31F5143099F8033F67
:100D7E006422516025412FE30156279309FE11FE8F
:100D8E0079BA607542EA6258A0E51F534FD1C0A3ED
:100D9E00094253F71204621B30F505F7690C351B37
:100DAE0070822F2F144F51C064250057656C636FEE
:100DBE006D658094322C2062791FF81FFE0D0E2077
:100DCE002053656594322E444F432C94322E455158
:100DDE0055A494322E484452B4D58D2E0E201F9E0B
:100DEE001FA0210D0E9432204C6F633A00203EA0BE
:100DFE0086CA822800292C958C80C83A20001F971D
:100E0E0082C373C7A6832CBA204A554D508086A143
:100E1E0072820D0E0D0D1F8783813A20001FE4FB99
:100E2E00206B65793A20000D0D1F88808381202864
:100E3E00000D0D1F821FFD001F8120202020201F6E
:100E4E00C90E29201F871FB23A200046697273749B
:100E5E001F813A20004C6173741F813A2020001FBD
:100E6E00B9A120737572653F000D0D1F9C9A922CCF
:100E7E008C80C80E20201F9CC12C8E81F70D0E0D6C
:100E8E000D1F9F206173636969F9961F9884892CE1
:100E9E00958C80A00D0E0D1F8AA065640D0E0D1F82
:100EAE008AC1640D0E53756D6D6172793A0E20C64E
:100EBE007391640E208B91640E208B20777269746F
:100ECE0074656E0E1F9B3A0E208B20756E61626CE0
:100EDE0065802077726974650E2020626164F573F7
:100EEE000E20859F96C60E2085849D0E2085206E31
:100EFE006F6E849D0E1F979B206465746563746589
:100F0E00640D0E0D866E696E67823A0D0E0D0D53D1
:100F1E00656E64696E671F988489AC2020002080FE
:100F2E002020000D0D5374616E646172641F9E73F8
:100F3E000E1FDA1FF465641F9E730E1F9A9E001F0C
:100F4E0082001F8F1FE21FAA003F3F3F001FD700E6
:100F5E001F8ED7D1001FD18273001F8682001F8A79
:100F6E00001F93001F8781001F88808381001F84CC
:100F7E00DB9A83001F84DBC083001F9C9A92001FA4
:100F8E00ED83001FCB9990001F9990CB640D0E1F1F
:040F9E00859B0D0E14
:00000001FF
